{
  "transactions": [
    {
      "hash": "0x243972eaa214c964860cc9eb5852d52dd11f4a550e713259c21f902255b95c02",
      "transactionType": "CALL",
      "contractName": null,
      "contractAddress": "0x357b3a662ea70b5cb42a2950cee16974b02c9f9b",
      "function": "openTrove(address,uint256,uint256,uint256,uint256,uint256,uint256,uint256,address,address,address)",
      "arguments": [
        "0x56fD3F2bEE130e9867942D0F463a16fBE49B8d81",
        "1738336184",
        "15000000000000000000",
        "2000000000000000000000",
        "0",
        "0",
        "100000000000000000",
        "115792089237316195423570985008687907853269984665640564039457584007913129639935",
        "0x0000000000000000000000000000000000000000",
        "0x0000000000000000000000000000000000000000",
        "0x0000000000000000000000000000000000000000"
      ],
      "transaction": {
        "from": "0x56fd3f2bee130e9867942d0f463a16fbe49b8d81",
        "to": "0x357b3a662ea70b5cb42a2950cee16974b02c9f9b",
        "gas": "0xc0c0c",
        "value": "0x0",
        "input": "0x9cb90ba600000000000000000000000056fd3f2bee130e9867942d0f463a16fbe49b8d8100000000000000000000000000000000000000000000000000000000679ce7b8000000000000000000000000000000000000000000000000d02ab486cedc000000000000000000000000000000000000000000000000006c6b935b8bbd40000000000000000000000000000000000000000000000000000000000000000000000000000000000000000000000000000000000000000000000000000000000000000000000000000000000000000000000000000000000000016345785d8a0000ffffffffffffffffffffffffffffffffffffffffffffffffffffffffffffffff000000000000000000000000000000000000000000000000000000000000000000000000000000000000000000000000000000000000000000000000000000000000000000000000000000000000000000000000000000000000000000000000",
        "nonce": "0x9cc",
        "chainId": "0xaef3"
      },
      "additionalContracts": [],
      "isFixedGasLimit": false
    },
    {
      "hash": "0xcc671789628d7d52a2df0368e4cfe6c6980fdf65410bf23e89f3f53fa9d607e6",
      "transactionType": "CALL",
      "contractName": null,
      "contractAddress": "0xfd59767bdfb221f83a5e60702f3b89132fdaaac2",
      "function": "transfer(address,uint256)",
      "arguments": [
        "0xF50858a1C0507E57c08A2798dCcAecfDBB5feD50",
        "100000000000000000000"
      ],
      "transaction": {
        "from": "0x56fd3f2bee130e9867942d0f463a16fbe49b8d81",
        "to": "0xfd59767bdfb221f83a5e60702f3b89132fdaaac2",
        "gas": "0x115bc",
        "value": "0x0",
        "input": "0xa9059cbb000000000000000000000000f50858a1c0507e57c08a2798dccaecfdbb5fed500000000000000000000000000000000000000000000000056bc75e2d63100000",
        "nonce": "0x9cd",
        "chainId": "0xaef3"
      },
      "additionalContracts": [],
      "isFixedGasLimit": false
    },
    {
      "hash": "0xe62fa57b6d31933f8cb7ae60fe47f1a356664d5fd88bcac262adabc17db48275",
      "transactionType": "CALL",
      "contractName": null,
      "contractAddress": "0xfd59767bdfb221f83a5e60702f3b89132fdaaac2",
      "function": "approve(address,uint256)",
      "arguments": [
        "0x0d1a4b4E556Ac7aAEC944825cE552e871780C655",
        "115792089237316195423570985008687907853269984665640564039457584007913129639935"
      ],
      "transaction": {
        "from": "0xf50858a1c0507e57c08a2798dccaecfdbb5fed50",
        "to": "0xfd59767bdfb221f83a5e60702f3b89132fdaaac2",
        "gas": "0x903e",
        "value": "0x0",
        "input": "0x095ea7b30000000000000000000000000d1a4b4e556ac7aaec944825ce552e871780c655ffffffffffffffffffffffffffffffffffffffffffffffffffffffffffffffff",
        "nonce": "0x128",
        "chainId": "0xaef3"
      },
      "additionalContracts": [],
      "isFixedGasLimit": false
    },
    {
      "hash": "0x25c24d442c7018d88bd2465ebaaa43acee55d568cbe6af836296f25f03c0280e",
      "transactionType": "CALL",
      "contractName": null,
      "contractAddress": "0x0d1a4b4e556ac7aaec944825ce552e871780c655",
      "function": "redeemCollateral(uint256,uint256,uint256)",
      "arguments": [
        "100000000000000000000",
        "20",
        "1000000000000000000"
      ],
      "transaction": {
        "from": "0xf50858a1c0507e57c08a2798dccaecfdbb5fed50",
        "to": "0x0d1a4b4e556ac7aaec944825ce552e871780c655",
        "gas": "0x62bd3",
        "value": "0x0",
        "input": "0xab6d53bd0000000000000000000000000000000000000000000000056bc75e2d6310000000000000000000000000000000000000000000000000000000000000000000140000000000000000000000000000000000000000000000000de0b6b3a7640000",
        "nonce": "0x129",
        "chainId": "0xaef3"
      },
      "additionalContracts": [],
      "isFixedGasLimit": false
    },
    {
      "hash": "0xf2d1b51480739bf2626252ae4f6eb884b65e05489b7361a3258b2c48f9491510",
      "transactionType": "CALL",
      "contractName": null,
      "contractAddress": "0x357b3a662ea70b5cb42a2950cee16974b02c9f9b",
      "function": "closeTrove(uint256)",
      "arguments": [
        "43584597942161366071551365206554680697185914655287513538529556423872528394306"
      ],
      "transaction": {
        "from": "0x56fd3f2bee130e9867942d0f463a16fbe49b8d81",
        "to": "0x357b3a662ea70b5cb42a2950cee16974b02c9f9b",
        "gas": "0x56857",
        "value": "0x0",
        "input": "0x5aa6d461605c021b9f7f11da9cd267131a4315cffc3d5e3c1e1469687aae11389d7e2842",
        "nonce": "0x9ce",
        "chainId": "0xaef3"
      },
      "additionalContracts": [],
      "isFixedGasLimit": false
    },
    {
      "hash": "0x7d1b6130de1237e4bfce88a8c43e30ac6bca1ff658a346f35ab8820ea0f1fadb",
      "transactionType": "CALL",
      "contractName": null,
      "contractAddress": "0x357b3a662ea70b5cb42a2950cee16974b02c9f9b",
      "function": "openTrove(address,uint256,uint256,uint256,uint256,uint256,uint256,uint256,address,address,address)",
      "arguments": [
        "0x56fD3F2bEE130e9867942D0F463a16fBE49B8d81",
        "1738336185",
        "15000000000000000000",
        "2000000000000000000000",
        "0",
        "0",
        "100000000000000000",
        "115792089237316195423570985008687907853269984665640564039457584007913129639935",
        "0x0000000000000000000000000000000000000000",
        "0x0000000000000000000000000000000000000000",
        "0x0000000000000000000000000000000000000000"
      ],
      "transaction": {
        "from": "0x56fd3f2bee130e9867942d0f463a16fbe49b8d81",
        "to": "0x357b3a662ea70b5cb42a2950cee16974b02c9f9b",
        "gas": "0xbf961",
        "value": "0x0",
        "input": "0x9cb90ba600000000000000000000000056fd3f2bee130e9867942d0f463a16fbe49b8d8100000000000000000000000000000000000000000000000000000000679ce7b9000000000000000000000000000000000000000000000000d02ab486cedc000000000000000000000000000000000000000000000000006c6b935b8bbd40000000000000000000000000000000000000000000000000000000000000000000000000000000000000000000000000000000000000000000000000000000000000000000000000000000000000000000000000000000000000016345785d8a0000ffffffffffffffffffffffffffffffffffffffffffffffffffffffffffffffff000000000000000000000000000000000000000000000000000000000000000000000000000000000000000000000000000000000000000000000000000000000000000000000000000000000000000000000000000000000000000000000000",
        "nonce": "0x9cf",
        "chainId": "0xaef3"
      },
      "additionalContracts": [],
      "isFixedGasLimit": false
    },
    {
      "hash": "0x8379010264cbb231a48e9e307396fe5e821aef079da5945f8989554cb192c940",
      "transactionType": "CALL",
      "contractName": null,
      "contractAddress": "0x03d906157670642231aa778f557e0a80977ed010",
      "function": "setPrice(uint256)",
      "arguments": [
        "100000000000000000000"
      ],
      "transaction": {
        "from": "0xf50858a1c0507e57c08a2798dccaecfdbb5fed50",
        "to": "0x03d906157670642231aa778f557e0a80977ed010",
        "gas": "0x8f82",
        "value": "0x0",
        "input": "0x91b7f5ed0000000000000000000000000000000000000000000000056bc75e2d63100000",
        "nonce": "0x12a",
        "chainId": "0xaef3"
      },
      "additionalContracts": [],
      "isFixedGasLimit": false
    },
    {
      "hash": "0x1d6bed3853481e54958e9dd2a8ee56a3b9ce0ccf4ac0d846b3db36c2b2667ee2",
      "transactionType": "CALL",
      "contractName": null,
      "contractAddress": "0x32fc293f48f0645ad9168a0ce73f064f6695d3ce",
      "function": "batchLiquidateTroves(uint256[])",
      "arguments": [
        "[66979744965544400308104009156286934685021099670594479074925341600444075527555]"
      ],
      "transaction": {
        "from": "0xf50858a1c0507e57c08a2798dccaecfdbb5fed50",
        "to": "0x32fc293f48f0645ad9168a0ce73f064f6695d3ce",
        "gas": "0x61896",
        "value": "0x0",
        "input": "0xef49a6b40000000000000000000000000000000000000000000000000000000000000020000000000000000000000000000000000000000000000000000000000000000194153133fa0a695dc4c5e923816e4434bb6f5bf850bba6afe04af4d581d0cd83",
        "nonce": "0x12b",
        "chainId": "0xaef3"
      },
      "additionalContracts": [],
      "isFixedGasLimit": false
    },
    {
      "hash": "0xe08eb9bef4e4f911048e5f555bf0885d9fa3c4ce288aaa7b60934c71b75f5eb5",
      "transactionType": "CALL",
      "contractName": null,
      "contractAddress": "0x03d906157670642231aa778f557e0a80977ed010",
      "function": "setPrice(uint256)",
      "arguments": [
        "200000000000000000000"
      ],
      "transaction": {
        "from": "0xf50858a1c0507e57c08a2798dccaecfdbb5fed50",
        "to": "0x03d906157670642231aa778f557e0a80977ed010",
        "gas": "0x8f82",
        "value": "0x0",
        "input": "0x91b7f5ed00000000000000000000000000000000000000000000000ad78ebc5ac6200000",
        "nonce": "0x12c",
        "chainId": "0xaef3"
      },
      "additionalContracts": [],
      "isFixedGasLimit": false
    }
  ],
  "receipts": [
    {
      "status": "0x1",
      "cumulativeGasUsed": "0x963ba",
      "logs": [
        {
          "address": "0x03d906157670642231aa778f557e0a80977ed010",
          "topics": [
            "0x4d29de21de555af78a62fc82dd4bc05e9ae5b0660a37f04729527e0f22780cd3"
          ],
          "data": "0x00000000000000000000000000000000000000000000000ad78ebc5ac6200000",
          "blockHash": "0xec3fa11ce2c111294acf843fdc288ee76e23795a7182191fa693cfe2d712d030",
          "blockNumber": "0x23a6338",
          "transactionHash": "0x243972eaa214c964860cc9eb5852d52dd11f4a550e713259c21f902255b95c02",
          "transactionIndex": "0x1",
          "logIndex": "0x0",
          "removed": false
        },
        {
          "address": "0x357b3a662ea70b5cb42a2950cee16974b02c9f9b",
          "topics": [
            "0x3942babd464ceb1c7d319f75245a8cd41334592b45507f072e7020e63c22a8dc",
            "0x605c021b9f7f11da9cd267131a4315cffc3d5e3c1e1469687aae11389d7e2842"
          ],
          "data": "0x0000000000000000000000000000000000000000000000000000000000000000",
          "blockHash": "0xec3fa11ce2c111294acf843fdc288ee76e23795a7182191fa693cfe2d712d030",
          "blockNumber": "0x23a6338",
          "transactionHash": "0x243972eaa214c964860cc9eb5852d52dd11f4a550e713259c21f902255b95c02",
          "transactionIndex": "0x1",
          "logIndex": "0x1",
          "removed": false
        },
        {
          "address": "0x357b3a662ea70b5cb42a2950cee16974b02c9f9b",
          "topics": [
            "0x649442545e0f313a6d8087b19bc47bd2bd9b63f79d23a773446e00d2ea01d169",
            "0x605c021b9f7f11da9cd267131a4315cffc3d5e3c1e1469687aae11389d7e2842"
          ],
          "data": "0x00000000000000000000000000000000000000000000000000000000000000000000000000000000000000000000000000000000000000000000000000000000",
          "blockHash": "0xec3fa11ce2c111294acf843fdc288ee76e23795a7182191fa693cfe2d712d030",
          "blockNumber": "0x23a6338",
          "transactionHash": "0x243972eaa214c964860cc9eb5852d52dd11f4a550e713259c21f902255b95c02",
          "transactionIndex": "0x1",
          "logIndex": "0x2",
          "removed": false
        },
        {
          "address": "0xfd59767bdfb221f83a5e60702f3b89132fdaaac2",
          "topics": [
            "0xddf252ad1be2c89b69c2b068fc378daa952ba7f163c4a11628f55a4df523b3ef",
            "0x0000000000000000000000000000000000000000000000000000000000000000",
            "0x00000000000000000000000056fd3f2bee130e9867942d0f463a16fbe49b8d81"
          ],
          "data": "0x0000000000000000000000000000000000000000000000000446170abfbbdf09",
          "blockHash": "0xec3fa11ce2c111294acf843fdc288ee76e23795a7182191fa693cfe2d712d030",
          "blockNumber": "0x23a6338",
          "transactionHash": "0x243972eaa214c964860cc9eb5852d52dd11f4a550e713259c21f902255b95c02",
          "transactionIndex": "0x1",
          "logIndex": "0x3",
          "removed": false
        },
        {
          "address": "0xfd59767bdfb221f83a5e60702f3b89132fdaaac2",
          "topics": [
            "0xddf252ad1be2c89b69c2b068fc378daa952ba7f163c4a11628f55a4df523b3ef",
            "0x0000000000000000000000000000000000000000000000000000000000000000",
            "0x000000000000000000000000788d1c22caefe663a1f3342383a1a2543ccfbe9b"
          ],
          "data": "0x0000000000000000000000000000000000000000000000000cd245203f339d19",
          "blockHash": "0xec3fa11ce2c111294acf843fdc288ee76e23795a7182191fa693cfe2d712d030",
          "blockNumber": "0x23a6338",
          "transactionHash": "0x243972eaa214c964860cc9eb5852d52dd11f4a550e713259c21f902255b95c02",
          "transactionIndex": "0x1",
          "logIndex": "0x4",
          "removed": false
        },
        {
          "address": "0x874069fa1eb16d44d622f2e0ca25eea172369bc1",
          "topics": [
            "0xddf252ad1be2c89b69c2b068fc378daa952ba7f163c4a11628f55a4df523b3ef",
            "0x00000000000000000000000056fd3f2bee130e9867942d0f463a16fbe49b8d81",
            "0x000000000000000000000000e3d9b4eb15bb4a2f3a3fc146c71fc2670b98398c"
          ],
          "data": "0x000000000000000000000000000000000000000000000000d02ab486cedc0000",
          "blockHash": "0xec3fa11ce2c111294acf843fdc288ee76e23795a7182191fa693cfe2d712d030",
          "blockNumber": "0x23a6338",
          "transactionHash": "0x243972eaa214c964860cc9eb5852d52dd11f4a550e713259c21f902255b95c02",
          "transactionIndex": "0x1",
          "logIndex": "0x5",
          "removed": false
        },
        {
          "address": "0xe3d9b4eb15bb4a2f3a3fc146c71fc2670b98398c",
          "topics": [
            "0x9bbe217b4113a0fc957e51f8db99c9989f520e3c6bcca7a8e12c6316eaf995bf"
          ],
          "data": "0x00000000000000000000000000000000000000000000000a341a18b47e27f393",
          "blockHash": "0xec3fa11ce2c111294acf843fdc288ee76e23795a7182191fa693cfe2d712d030",
          "blockNumber": "0x23a6338",
          "transactionHash": "0x243972eaa214c964860cc9eb5852d52dd11f4a550e713259c21f902255b95c02",
          "transactionIndex": "0x1",
          "logIndex": "0x6",
          "removed": false
        },
        {
          "address": "0xfd59767bdfb221f83a5e60702f3b89132fdaaac2",
          "topics": [
            "0xddf252ad1be2c89b69c2b068fc378daa952ba7f163c4a11628f55a4df523b3ef",
            "0x0000000000000000000000000000000000000000000000000000000000000000",
            "0x00000000000000000000000056fd3f2bee130e9867942d0f463a16fbe49b8d81"
          ],
          "data": "0x00000000000000000000000000000000000000000000006c6b935b8bbd400000",
          "blockHash": "0xec3fa11ce2c111294acf843fdc288ee76e23795a7182191fa693cfe2d712d030",
          "blockNumber": "0x23a6338",
          "transactionHash": "0x243972eaa214c964860cc9eb5852d52dd11f4a550e713259c21f902255b95c02",
          "transactionIndex": "0x1",
          "logIndex": "0x7",
          "removed": false
        },
        {
          "address": "0x874069fa1eb16d44d622f2e0ca25eea172369bc1",
          "topics": [
            "0xddf252ad1be2c89b69c2b068fc378daa952ba7f163c4a11628f55a4df523b3ef",
            "0x00000000000000000000000056fd3f2bee130e9867942d0f463a16fbe49b8d81",
            "0x0000000000000000000000009450188ccd9ee2357dba39ac53e7f0c7dbad3979"
          ],
          "data": "0x00000000000000000000000000000000000000000000000000853a0d2313c000",
          "blockHash": "0xec3fa11ce2c111294acf843fdc288ee76e23795a7182191fa693cfe2d712d030",
          "blockNumber": "0x23a6338",
          "transactionHash": "0x243972eaa214c964860cc9eb5852d52dd11f4a550e713259c21f902255b95c02",
          "transactionIndex": "0x1",
          "logIndex": "0x8",
          "removed": false
        },
        {
          "address": "0x3770616f42c9e7159a495c1b030140f8d17f3128",
          "topics": [
            "0xddf252ad1be2c89b69c2b068fc378daa952ba7f163c4a11628f55a4df523b3ef",
            "0x0000000000000000000000000000000000000000000000000000000000000000",
            "0x00000000000000000000000056fd3f2bee130e9867942d0f463a16fbe49b8d81",
            "0x605c021b9f7f11da9cd267131a4315cffc3d5e3c1e1469687aae11389d7e2842"
          ],
          "data": "0x",
          "blockHash": "0xec3fa11ce2c111294acf843fdc288ee76e23795a7182191fa693cfe2d712d030",
          "blockNumber": "0x23a6338",
          "transactionHash": "0x243972eaa214c964860cc9eb5852d52dd11f4a550e713259c21f902255b95c02",
          "transactionIndex": "0x1",
          "logIndex": "0x9",
          "removed": false
        },
        {
          "address": "0x32fc293f48f0645ad9168a0ce73f064f6695d3ce",
          "topics": [
            "0x0fba2673863b12c7b8463f3fa2f9b0cb1d534c573cdec5b5d895ee00d6ce6f5e",
            "0x605c021b9f7f11da9cd267131a4315cffc3d5e3c1e1469687aae11389d7e2842"
          ],
          "data": "0x00000000000000000000000000000000000000000000006c7c6312eba89c2868000000000000000000000000000000000000000000000000d02ab486cedc00000000000000000000000000000000000000000000000000007923f646fc600f1c000000000000000000000000000000000000000000000000016345785d8a000000000000000000000000000000000000000000000000000009f83da6cc7cf39300000000000000000000000000000000000000000000000538d8b77885544c3b",
          "blockHash": "0xec3fa11ce2c111294acf843fdc288ee76e23795a7182191fa693cfe2d712d030",
          "blockNumber": "0x23a6338",
          "transactionHash": "0x243972eaa214c964860cc9eb5852d52dd11f4a550e713259c21f902255b95c02",
          "transactionIndex": "0x1",
          "logIndex": "0xa",
          "removed": false
        },
        {
          "address": "0x32fc293f48f0645ad9168a0ce73f064f6695d3ce",
          "topics": [
            "0x962110f281c1213763cd97a546b337b3cbfd25a31ea9723e9d8b7376ba45da1a",
            "0x605c021b9f7f11da9cd267131a4315cffc3d5e3c1e1469687aae11389d7e2842"
          ],
          "data": "0x0000000000000000000000000000000000000000000000000000000000000000000000000000000000000000000000000000000000000000016345785d8a0000000000000000000000000000000000000000000000000000000000000000000000000000000000000000000000000000000000000000000010cfb75feb5c286800000000000000000000000000000000000000000000006c6b935b8bbd4000000000000000000000000000000000000000000000000000000000000000000000000000000000000000000000000000000000000000000000d02ab486cedc0000",
          "blockHash": "0xec3fa11ce2c111294acf843fdc288ee76e23795a7182191fa693cfe2d712d030",
          "blockNumber": "0x23a6338",
          "transactionHash": "0x243972eaa214c964860cc9eb5852d52dd11f4a550e713259c21f902255b95c02",
          "transactionIndex": "0x1",
          "logIndex": "0xb",
          "removed": false
        }
      ],
      "logsBloom": "0x000800200000000000000000000008000000100000000000200000110000000000800000c000000000040000000001000000004000000000010000008400000000000000000000000000000800000010000000040000000000000880000000000000000003000000000000000000080000000000000020800000001000800204000000080800000000002000000000000040000004000000000000000000010004000000000000000001000000000000000008100000a000000000005000000000000002000000000000000040000000800000000000000001120001000020000004000001000000000200000000000000000000880000800000000000000000",
      "type": "0x0",
      "transactionHash": "0x243972eaa214c964860cc9eb5852d52dd11f4a550e713259c21f902255b95c02",
      "transactionIndex": "0x1",
      "blockHash": "0xec3fa11ce2c111294acf843fdc288ee76e23795a7182191fa693cfe2d712d030",
      "blockNumber": "0x23a6338",
      "gasUsed": "0x8b8cc",
      "effectiveGasPrice": "0x5d22cfc40",
      "from": "0x56fd3f2bee130e9867942d0f463a16fbe49b8d81",
      "to": "0x357b3a662ea70b5cb42a2950cee16974b02c9f9b",
      "contractAddress": null,
      "l1BaseFeeScalar": "0x0",
      "l1BlobBaseFee": "0x1",
      "l1BlobBaseFeeScalar": "0x0",
      "l1Fee": "0x0",
      "l1GasPrice": "0x11",
      "l1GasUsed": "0x81b"
    },
    {
      "status": "0x1",
      "cumulativeGasUsed": "0x5f945",
      "logs": [
        {
          "address": "0xfd59767bdfb221f83a5e60702f3b89132fdaaac2",
          "topics": [
            "0xddf252ad1be2c89b69c2b068fc378daa952ba7f163c4a11628f55a4df523b3ef",
            "0x00000000000000000000000056fd3f2bee130e9867942d0f463a16fbe49b8d81",
            "0x000000000000000000000000f50858a1c0507e57c08a2798dccaecfdbb5fed50"
          ],
          "data": "0x0000000000000000000000000000000000000000000000056bc75e2d63100000",
          "blockHash": "0x96c7c8c48f3c9fb4bfd75d8ef728a693478a76c687bbf9e3e48c9c66d0083ff9",
          "blockNumber": "0x23a633c",
          "transactionHash": "0xcc671789628d7d52a2df0368e4cfe6c6980fdf65410bf23e89f3f53fa9d607e6",
          "transactionIndex": "0x2",
          "logIndex": "0x2",
          "removed": false
        }
      ],
      "logsBloom": "0x00000000000000000000000000000000000000000000000020000000000000000000000000000000000400000000010000000000000000000000000000000000000000000000000000000008000000000000000000000000000000000000000000000000000000000000000000000000000000000000000000000010000000000040000008000000000000000000001000000000000000000000000000000000000000000000000000000000000000000000000000002000000000000000000000000002000000000000000004000000000000000000000000000000000000000004000000000000000000000000000000000000000000000000000000000000",
      "type": "0x0",
      "transactionHash": "0xcc671789628d7d52a2df0368e4cfe6c6980fdf65410bf23e89f3f53fa9d607e6",
      "transactionIndex": "0x2",
      "blockHash": "0x96c7c8c48f3c9fb4bfd75d8ef728a693478a76c687bbf9e3e48c9c66d0083ff9",
      "blockNumber": "0x23a633c",
      "gasUsed": "0xc914",
      "effectiveGasPrice": "0x5d22cfc40",
      "from": "0x56fd3f2bee130e9867942d0f463a16fbe49b8d81",
      "to": "0xfd59767bdfb221f83a5e60702f3b89132fdaaac2",
      "contractAddress": null,
      "l1BaseFeeScalar": "0x0",
      "l1BlobBaseFee": "0x1",
      "l1BlobBaseFeeScalar": "0x0",
      "l1Fee": "0x0",
      "l1GasPrice": "0x11",
      "l1GasUsed": "0x640"
    },
    {
      "status": "0x1",
      "cumulativeGasUsed": "0x9cb38",
      "logs": [
        {
          "address": "0xfd59767bdfb221f83a5e60702f3b89132fdaaac2",
          "topics": [
            "0x8c5be1e5ebec7d5bd14f71427d1e84f3dd0314c0f7b2291e5b200ac8c7c3b925",
            "0x000000000000000000000000f50858a1c0507e57c08a2798dccaecfdbb5fed50",
            "0x0000000000000000000000000d1a4b4e556ac7aaec944825ce552e871780c655"
          ],
          "data": "0xffffffffffffffffffffffffffffffffffffffffffffffffffffffffffffffff",
          "blockHash": "0x6fb84c50d063e0f61829b3a43c73bf04b3d9fced619370f3e834c0b94d22d6b0",
          "blockNumber": "0x23a633f",
          "transactionHash": "0xe62fa57b6d31933f8cb7ae60fe47f1a356664d5fd88bcac262adabc17db48275",
          "transactionIndex": "0x3",
          "logIndex": "0x4",
          "removed": false
        }
      ],
      "logsBloom": "0x00000000000000000000000000000000000000000000000000000000000000000000000000000000000400000000000000000000000000000000000000200000000000000000000000000000000000000000000000000000000000000000200000000000000000000000000000000000000000000000000000000000000000000040000008000000000000000000401000000000000000000000000000000000020000000000000000000000000000000000000000002000000000000000000000000000000000000000000004000000000000000000000000000000000000000010000000000000000000000000000000000000000000000000000000002000",
      "type": "0x0",
      "transactionHash": "0xe62fa57b6d31933f8cb7ae60fe47f1a356664d5fd88bcac262adabc17db48275",
      "transactionIndex": "0x3",
      "blockHash": "0x6fb84c50d063e0f61829b3a43c73bf04b3d9fced619370f3e834c0b94d22d6b0",
      "blockNumber": "0x23a633f",
      "gasUsed": "0x686f",
      "effectiveGasPrice": "0x5d22cfc40",
      "from": "0xf50858a1c0507e57c08a2798dccaecfdbb5fed50",
      "to": "0xfd59767bdfb221f83a5e60702f3b89132fdaaac2",
      "contractAddress": null,
      "l1BaseFeeScalar": "0x0",
      "l1BlobBaseFee": "0x1",
      "l1BlobBaseFeeScalar": "0x0",
      "l1Fee": "0x0",
      "l1GasPrice": "0x11",
      "l1GasUsed": "0x640"
    },
    {
      "status": "0x1",
      "cumulativeGasUsed": "0xe7235",
      "logs": [
        {
          "address": "0x03d906157670642231aa778f557e0a80977ed010",
          "topics": [
            "0x4d29de21de555af78a62fc82dd4bc05e9ae5b0660a37f04729527e0f22780cd3"
          ],
          "data": "0x00000000000000000000000000000000000000000000000ad78ebc5ac6200000",
          "blockHash": "0x6e2670401c38456871050ec6f08606cf0797ac6159f9d63b7b0a304f9d824484",
          "blockNumber": "0x23a6343",
          "transactionHash": "0x25c24d442c7018d88bd2465ebaaa43acee55d568cbe6af836296f25f03c0280e",
          "transactionIndex": "0x3",
          "logIndex": "0x4",
          "removed": false
        },
        {
          "address": "0x7913d782b01d29a2e886c88870f575aec8044d9d",
          "topics": [
            "0x316f60239adb8a9761840b0c8fa98be5be997ab540f803e68b716491da743201"
          ],
          "data": "0x00000000000000000000000000000000000000000000001460df1da417d2836d",
          "blockHash": "0x6e2670401c38456871050ec6f08606cf0797ac6159f9d63b7b0a304f9d824484",
          "blockNumber": "0x23a6343",
          "transactionHash": "0x25c24d442c7018d88bd2465ebaaa43acee55d568cbe6af836296f25f03c0280e",
          "transactionIndex": "0x3",
          "logIndex": "0x5",
          "removed": false
        },
        {
          "address": "0x7913d782b01d29a2e886c88870f575aec8044d9d",
          "topics": [
            "0xb81b9c2dfafac0a12c15a844bf9eeadd4056362c69dfce825ce7538d1706d8eb"
          ],
          "data": "0x00000000000000000000000000000000000000000000000026e7eed054aea6ee",
          "blockHash": "0x6e2670401c38456871050ec6f08606cf0797ac6159f9d63b7b0a304f9d824484",
          "blockNumber": "0x23a6343",
          "transactionHash": "0x25c24d442c7018d88bd2465ebaaa43acee55d568cbe6af836296f25f03c0280e",
          "transactionIndex": "0x3",
          "logIndex": "0x6",
          "removed": false
        },
        {
          "address": "0xe3d9b4eb15bb4a2f3a3fc146c71fc2670b98398c",
          "topics": [
            "0x9bbe217b4113a0fc957e51f8db99c9989f520e3c6bcca7a8e12c6316eaf995bf"
          ],
          "data": "0x00000000000000000000000000000000000000000000000aefc601c4ec6c2294",
          "blockHash": "0x6e2670401c38456871050ec6f08606cf0797ac6159f9d63b7b0a304f9d824484",
          "blockNumber": "0x23a6343",
          "transactionHash": "0x25c24d442c7018d88bd2465ebaaa43acee55d568cbe6af836296f25f03c0280e",
          "transactionIndex": "0x3",
          "logIndex": "0x7",
          "removed": false
        },
        {
          "address": "0x874069fa1eb16d44d622f2e0ca25eea172369bc1",
          "topics": [
            "0xddf252ad1be2c89b69c2b068fc378daa952ba7f163c4a11628f55a4df523b3ef",
            "0x0000000000000000000000007913d782b01d29a2e886c88870f575aec8044d9d",
            "0x000000000000000000000000e3d9b4eb15bb4a2f3a3fc146c71fc2670b98398c"
          ],
          "data": "0x000000000000000000000000000000000000000000000000bbabe9106e442f01",
          "blockHash": "0x6e2670401c38456871050ec6f08606cf0797ac6159f9d63b7b0a304f9d824484",
          "blockNumber": "0x23a6343",
          "transactionHash": "0x25c24d442c7018d88bd2465ebaaa43acee55d568cbe6af836296f25f03c0280e",
          "transactionIndex": "0x3",
          "logIndex": "0x8",
          "removed": false
        },
        {
          "address": "0x32fc293f48f0645ad9168a0ce73f064f6695d3ce",
          "topics": [
            "0x0fba2673863b12c7b8463f3fa2f9b0cb1d534c573cdec5b5d895ee00d6ce6f5e",
            "0x7f6977b8d9a490ea634408907bba9887a77d6a546911cbb001e2db4185613c87"
          ],
          "data": "0x00000000000000000000000000000000000000000000028b1d0219604e11f9d40000000000000000000000000000000000000000000000094e98f4f2cc1a96b60000000000000000000000000000000000000000000000056a87038f121abf870000000000000000000000000000000000000000000000000011c37937e0800000000000000000000000000000000000000000000000000009f83da6cc7cf39300000000000000000000000000000000000000000000000538d8b77885544c3b",
          "blockHash": "0x6e2670401c38456871050ec6f08606cf0797ac6159f9d63b7b0a304f9d824484",
          "blockNumber": "0x23a6343",
          "transactionHash": "0x25c24d442c7018d88bd2465ebaaa43acee55d568cbe6af836296f25f03c0280e",
          "transactionIndex": "0x3",
          "logIndex": "0x9",
          "removed": false
        },
        {
          "address": "0x32fc293f48f0645ad9168a0ce73f064f6695d3ce",
          "topics": [
            "0x962110f281c1213763cd97a546b337b3cbfd25a31ea9723e9d8b7376ba45da1a",
            "0x7f6977b8d9a490ea634408907bba9887a77d6a546911cbb001e2db4185613c87"
          ],
          "data": "0x00000000000000000000000000000000000000000000000000000000000000060000000000000000000000000000000000000000000000000011c37937e080000000000000000000000000000000000000000000000000624bd899ef0fef1f310000000000000000000000000000000000000000000000000000000000000000fffffffffffffffffffffffffffffffffffffffffffffffa9438a1d29cf00000000000000000000000000000000000000000000000000000bbabe9106e442f01ffffffffffffffffffffffffffffffffffffffffffffffffff285c3b7d667422",
          "blockHash": "0x6e2670401c38456871050ec6f08606cf0797ac6159f9d63b7b0a304f9d824484",
          "blockNumber": "0x23a6343",
          "transactionHash": "0x25c24d442c7018d88bd2465ebaaa43acee55d568cbe6af836296f25f03c0280e",
          "transactionIndex": "0x3",
          "logIndex": "0xa",
          "removed": false
        },
        {
          "address": "0x32fc293f48f0645ad9168a0ce73f064f6695d3ce",
          "topics": [
            "0xc7e8309b9b14e7a8561ed352b9fd8733de32417fb7b6a69f5671f79e7bb29ddd",
            "0x7f6977b8d9a490ea634408907bba9887a77d6a546911cbb001e2db4185613c87"
          ],
          "data": "0x0000000000000000000000000000000000000000000000000618b79551187422",
          "blockHash": "0x6e2670401c38456871050ec6f08606cf0797ac6159f9d63b7b0a304f9d824484",
          "blockNumber": "0x23a6343",
          "transactionHash": "0x25c24d442c7018d88bd2465ebaaa43acee55d568cbe6af836296f25f03c0280e",
          "transactionIndex": "0x3",
          "logIndex": "0xb",
          "removed": false
        },
        {
          "address": "0x32fc293f48f0645ad9168a0ce73f064f6695d3ce",
          "topics": [
            "0xc8f82a388a36012a2cfc586d40688baa3fe0112eff350cfd00b7e4dddaf6a5a4"
          ],
          "data": "0x0000000000000000000000000000000000000000000000056bc75e2d631000000000000000000000000000000000000000000000000000056bc75e2d6310000000000000000000000000000000000000000000000000000000d7a3c482998bde0000000000000000000000000000000000000000000000000618b7955118742200000000000000000000000000000000000000000000000ad78ebc5ac6200000",
          "blockHash": "0x6e2670401c38456871050ec6f08606cf0797ac6159f9d63b7b0a304f9d824484",
          "blockNumber": "0x23a6343",
          "transactionHash": "0x25c24d442c7018d88bd2465ebaaa43acee55d568cbe6af836296f25f03c0280e",
          "transactionIndex": "0x3",
          "logIndex": "0xc",
          "removed": false
        },
        {
          "address": "0xfd59767bdfb221f83a5e60702f3b89132fdaaac2",
          "topics": [
            "0xddf252ad1be2c89b69c2b068fc378daa952ba7f163c4a11628f55a4df523b3ef",
            "0x0000000000000000000000000000000000000000000000000000000000000000",
            "0x00000000000000000000000056fd3f2bee130e9867942d0f463a16fbe49b8d81"
          ],
          "data": "0x000000000000000000000000000000000000000000000000000023d33f6e2f66",
          "blockHash": "0x6e2670401c38456871050ec6f08606cf0797ac6159f9d63b7b0a304f9d824484",
          "blockNumber": "0x23a6343",
          "transactionHash": "0x25c24d442c7018d88bd2465ebaaa43acee55d568cbe6af836296f25f03c0280e",
          "transactionIndex": "0x3",
          "logIndex": "0xd",
          "removed": false
        },
        {
          "address": "0xfd59767bdfb221f83a5e60702f3b89132fdaaac2",
          "topics": [
            "0xddf252ad1be2c89b69c2b068fc378daa952ba7f163c4a11628f55a4df523b3ef",
            "0x0000000000000000000000000000000000000000000000000000000000000000",
            "0x000000000000000000000000788d1c22caefe663a1f3342383a1a2543ccfbe9b"
          ],
          "data": "0x00000000000000000000000000000000000000000000000000006b79be4a8e31",
          "blockHash": "0x6e2670401c38456871050ec6f08606cf0797ac6159f9d63b7b0a304f9d824484",
          "blockNumber": "0x23a6343",
          "transactionHash": "0x25c24d442c7018d88bd2465ebaaa43acee55d568cbe6af836296f25f03c0280e",
          "transactionIndex": "0x3",
          "logIndex": "0xe",
          "removed": false
        },
        {
          "address": "0xe3d9b4eb15bb4a2f3a3fc146c71fc2670b98398c",
          "topics": [
            "0x9bbe217b4113a0fc957e51f8db99c9989f520e3c6bcca7a8e12c6316eaf995bf"
          ],
          "data": "0x00000000000000000000000000000000000000000000000aeeee5e0069d296b6",
          "blockHash": "0x6e2670401c38456871050ec6f08606cf0797ac6159f9d63b7b0a304f9d824484",
          "blockNumber": "0x23a6343",
          "transactionHash": "0x25c24d442c7018d88bd2465ebaaa43acee55d568cbe6af836296f25f03c0280e",
          "transactionIndex": "0x3",
          "logIndex": "0xf",
          "removed": false
        },
        {
          "address": "0x874069fa1eb16d44d622f2e0ca25eea172369bc1",
          "topics": [
            "0xddf252ad1be2c89b69c2b068fc378daa952ba7f163c4a11628f55a4df523b3ef",
            "0x000000000000000000000000e3d9b4eb15bb4a2f3a3fc146c71fc2670b98398c",
            "0x000000000000000000000000f50858a1c0507e57c08a2798dccaecfdbb5fed50"
          ],
          "data": "0x00000000000000000000000000000000000000000000000000d7a3c482998bde",
          "blockHash": "0x6e2670401c38456871050ec6f08606cf0797ac6159f9d63b7b0a304f9d824484",
          "blockNumber": "0x23a6343",
          "transactionHash": "0x25c24d442c7018d88bd2465ebaaa43acee55d568cbe6af836296f25f03c0280e",
          "transactionIndex": "0x3",
          "logIndex": "0x10",
          "removed": false
        },
        {
          "address": "0x0d1a4b4e556ac7aaec944825ce552e871780c655",
          "topics": [
            "0xc454ee9b76c52f782a256af821b857ca6e125d1e3333bcede402fec2bed9600c"
          ],
          "data": "0x0000000000000000000000000000000000000000000000000c1fabb16a506845",
          "blockHash": "0x6e2670401c38456871050ec6f08606cf0797ac6159f9d63b7b0a304f9d824484",
          "blockNumber": "0x23a6343",
          "transactionHash": "0x25c24d442c7018d88bd2465ebaaa43acee55d568cbe6af836296f25f03c0280e",
          "transactionIndex": "0x3",
          "logIndex": "0x11",
          "removed": false
        },
        {
          "address": "0x0d1a4b4e556ac7aaec944825ce552e871780c655",
          "topics": [
            "0x860f8d2f0c74dd487e89e2883e3b25b8159ce1e1b3433a291cba7b82c508f3bc"
          ],
          "data": "0x00000000000000000000000000000000000000000000000000000000679ce7fb",
          "blockHash": "0x6e2670401c38456871050ec6f08606cf0797ac6159f9d63b7b0a304f9d824484",
          "blockNumber": "0x23a6343",
          "transactionHash": "0x25c24d442c7018d88bd2465ebaaa43acee55d568cbe6af836296f25f03c0280e",
          "transactionIndex": "0x3",
          "logIndex": "0x12",
          "removed": false
        },
        {
          "address": "0xfd59767bdfb221f83a5e60702f3b89132fdaaac2",
          "topics": [
            "0xddf252ad1be2c89b69c2b068fc378daa952ba7f163c4a11628f55a4df523b3ef",
            "0x000000000000000000000000f50858a1c0507e57c08a2798dccaecfdbb5fed50",
            "0x0000000000000000000000000000000000000000000000000000000000000000"
          ],
          "data": "0x0000000000000000000000000000000000000000000000056bc75e2d63100000",
          "blockHash": "0x6e2670401c38456871050ec6f08606cf0797ac6159f9d63b7b0a304f9d824484",
          "blockNumber": "0x23a6343",
          "transactionHash": "0x25c24d442c7018d88bd2465ebaaa43acee55d568cbe6af836296f25f03c0280e",
          "transactionIndex": "0x3",
          "logIndex": "0x13",
          "removed": false
        }
      ],
      "logsBloom": "0x0000002000008000000100000080080000000000001000002000001900000000000000008000880000040000000001000000004000000000030001008400000000000000000000010000008800200010200000040000000000000880000000000000000002000000000000000000080800000000000020800000001000800204204000080810000000000000000000100040000000000000000000000004000000000000000000000001000000000010100000101000a0000000000010000000000000022000000000000000c4000000800000000000000004100001000020041004100001000000000000000000040000000000080000000000100000000000",
      "type": "0x0",
      "transactionHash": "0x25c24d442c7018d88bd2465ebaaa43acee55d568cbe6af836296f25f03c0280e",
      "transactionIndex": "0x3",
      "blockHash": "0x6e2670401c38456871050ec6f08606cf0797ac6159f9d63b7b0a304f9d824484",
      "blockNumber": "0x23a6343",
      "gasUsed": "0x4c869",
      "effectiveGasPrice": "0x5d22cfc40",
      "from": "0xf50858a1c0507e57c08a2798dccaecfdbb5fed50",
      "to": "0x0d1a4b4e556ac7aaec944825ce552e871780c655",
      "contractAddress": null,
      "l1BaseFeeScalar": "0x0",
      "l1BlobBaseFee": "0x1",
      "l1BlobBaseFeeScalar": "0x0",
      "l1Fee": "0x0",
      "l1GasPrice": "0x11",
      "l1GasUsed": "0x640"
    },
    {
      "status": "0x1",
      "cumulativeGasUsed": "0x9b6e7",
      "logs": [
        {
          "address": "0x03d906157670642231aa778f557e0a80977ed010",
          "topics": [
            "0x4d29de21de555af78a62fc82dd4bc05e9ae5b0660a37f04729527e0f22780cd3"
          ],
          "data": "0x00000000000000000000000000000000000000000000000ad78ebc5ac6200000",
          "blockHash": "0x7db9cb4e6f02c582701ae627b7f8150254e4a3088486d09fc94bc97900843e52",
          "blockNumber": "0x23a6347",
          "transactionHash": "0xf2d1b51480739bf2626252ae4f6eb884b65e05489b7361a3258b2c48f9491510",
          "transactionIndex": "0x2",
          "logIndex": "0x2",
          "removed": false
        },
        {
          "address": "0x3770616f42c9e7159a495c1b030140f8d17f3128",
          "topics": [
            "0xddf252ad1be2c89b69c2b068fc378daa952ba7f163c4a11628f55a4df523b3ef",
            "0x00000000000000000000000056fd3f2bee130e9867942d0f463a16fbe49b8d81",
            "0x0000000000000000000000000000000000000000000000000000000000000000",
            "0x605c021b9f7f11da9cd267131a4315cffc3d5e3c1e1469687aae11389d7e2842"
          ],
          "data": "0x",
          "blockHash": "0x7db9cb4e6f02c582701ae627b7f8150254e4a3088486d09fc94bc97900843e52",
          "blockNumber": "0x23a6347",
          "transactionHash": "0xf2d1b51480739bf2626252ae4f6eb884b65e05489b7361a3258b2c48f9491510",
          "transactionIndex": "0x2",
          "logIndex": "0x3",
          "removed": false
        },
        {
          "address": "0x32fc293f48f0645ad9168a0ce73f064f6695d3ce",
          "topics": [
            "0x0fba2673863b12c7b8463f3fa2f9b0cb1d534c573cdec5b5d895ee00d6ce6f5e",
            "0x605c021b9f7f11da9cd267131a4315cffc3d5e3c1e1469687aae11389d7e2842"
          ],
          "data": "0x000000000000000000000000000000000000000000000000000000000000000000000000000000000000000000000000000000000000000000000000000000000000000000000000000000000000000000000000000000000000000000000000000000000000000000000000000000000000000000000000000000000000000000000000000000000000000000000000000000000000000000000000000000000000000000000000000000000000000000000000000000000000000000000000",
          "blockHash": "0x7db9cb4e6f02c582701ae627b7f8150254e4a3088486d09fc94bc97900843e52",
          "blockNumber": "0x23a6347",
          "transactionHash": "0xf2d1b51480739bf2626252ae4f6eb884b65e05489b7361a3258b2c48f9491510",
          "transactionIndex": "0x2",
          "logIndex": "0x4",
          "removed": false
        },
        {
          "address": "0x32fc293f48f0645ad9168a0ce73f064f6695d3ce",
          "topics": [
            "0x962110f281c1213763cd97a546b337b3cbfd25a31ea9723e9d8b7376ba45da1a",
            "0x605c021b9f7f11da9cd267131a4315cffc3d5e3c1e1469687aae11389d7e2842"
          ],
          "data": "0x0000000000000000000000000000000000000000000000000000000000000001000000000000000000000000000000000000000000000000000000000000000000000000000000000000000000000000000000000000000000000000000000000000000000000000000000000000000000000000000000000000000000000000ffffffffffffffffffffffffffffffffffffffffffffff93839c9681e4599a6e0000000000000000000000000000000000000000000000000000000000000000ffffffffffffffffffffffffffffffffffffffffffffffff2fd54b7931240000",
          "blockHash": "0x7db9cb4e6f02c582701ae627b7f8150254e4a3088486d09fc94bc97900843e52",
          "blockNumber": "0x23a6347",
          "transactionHash": "0xf2d1b51480739bf2626252ae4f6eb884b65e05489b7361a3258b2c48f9491510",
          "transactionIndex": "0x2",
          "logIndex": "0x5",
          "removed": false
        },
        {
          "address": "0xfd59767bdfb221f83a5e60702f3b89132fdaaac2",
          "topics": [
            "0xddf252ad1be2c89b69c2b068fc378daa952ba7f163c4a11628f55a4df523b3ef",
            "0x0000000000000000000000000000000000000000000000000000000000000000",
            "0x00000000000000000000000056fd3f2bee130e9867942d0f463a16fbe49b8d81"
          ],
          "data": "0x00000000000000000000000000000000000000000000000000000d463e7206db",
          "blockHash": "0x7db9cb4e6f02c582701ae627b7f8150254e4a3088486d09fc94bc97900843e52",
          "blockNumber": "0x23a6347",
          "transactionHash": "0xf2d1b51480739bf2626252ae4f6eb884b65e05489b7361a3258b2c48f9491510",
          "transactionIndex": "0x2",
          "logIndex": "0x6",
          "removed": false
        },
        {
          "address": "0xfd59767bdfb221f83a5e60702f3b89132fdaaac2",
          "topics": [
            "0xddf252ad1be2c89b69c2b068fc378daa952ba7f163c4a11628f55a4df523b3ef",
            "0x0000000000000000000000000000000000000000000000000000000000000000",
            "0x000000000000000000000000788d1c22caefe663a1f3342383a1a2543ccfbe9b"
          ],
          "data": "0x000000000000000000000000000000000000000000000000000027d2bb561491",
          "blockHash": "0x7db9cb4e6f02c582701ae627b7f8150254e4a3088486d09fc94bc97900843e52",
          "blockNumber": "0x23a6347",
          "transactionHash": "0xf2d1b51480739bf2626252ae4f6eb884b65e05489b7361a3258b2c48f9491510",
          "transactionIndex": "0x2",
          "logIndex": "0x7",
          "removed": false
        },
        {
          "address": "0x874069fa1eb16d44d622f2e0ca25eea172369bc1",
          "topics": [
            "0xddf252ad1be2c89b69c2b068fc378daa952ba7f163c4a11628f55a4df523b3ef",
            "0x0000000000000000000000009450188ccd9ee2357dba39ac53e7f0c7dbad3979",
            "0x00000000000000000000000056fd3f2bee130e9867942d0f463a16fbe49b8d81"
          ],
          "data": "0x00000000000000000000000000000000000000000000000000853a0d2313c000",
          "blockHash": "0x7db9cb4e6f02c582701ae627b7f8150254e4a3088486d09fc94bc97900843e52",
          "blockNumber": "0x23a6347",
          "transactionHash": "0xf2d1b51480739bf2626252ae4f6eb884b65e05489b7361a3258b2c48f9491510",
          "transactionIndex": "0x2",
          "logIndex": "0x8",
          "removed": false
        },
        {
          "address": "0xfd59767bdfb221f83a5e60702f3b89132fdaaac2",
          "topics": [
            "0xddf252ad1be2c89b69c2b068fc378daa952ba7f163c4a11628f55a4df523b3ef",
            "0x00000000000000000000000056fd3f2bee130e9867942d0f463a16fbe49b8d81",
            "0x0000000000000000000000000000000000000000000000000000000000000000"
          ],
          "data": "0x00000000000000000000000000000000000000000000006c7c63697e1ba66592",
          "blockHash": "0x7db9cb4e6f02c582701ae627b7f8150254e4a3088486d09fc94bc97900843e52",
          "blockNumber": "0x23a6347",
          "transactionHash": "0xf2d1b51480739bf2626252ae4f6eb884b65e05489b7361a3258b2c48f9491510",
          "transactionIndex": "0x2",
          "logIndex": "0x9",
          "removed": false
        },
        {
          "address": "0xe3d9b4eb15bb4a2f3a3fc146c71fc2670b98398c",
          "topics": [
            "0x9bbe217b4113a0fc957e51f8db99c9989f520e3c6bcca7a8e12c6316eaf995bf"
          ],
          "data": "0x00000000000000000000000000000000000000000000000a1ec3a9799af696b6",
          "blockHash": "0x7db9cb4e6f02c582701ae627b7f8150254e4a3088486d09fc94bc97900843e52",
          "blockNumber": "0x23a6347",
          "transactionHash": "0xf2d1b51480739bf2626252ae4f6eb884b65e05489b7361a3258b2c48f9491510",
          "transactionIndex": "0x2",
          "logIndex": "0xa",
          "removed": false
        },
        {
          "address": "0x874069fa1eb16d44d622f2e0ca25eea172369bc1",
          "topics": [
            "0xddf252ad1be2c89b69c2b068fc378daa952ba7f163c4a11628f55a4df523b3ef",
            "0x000000000000000000000000e3d9b4eb15bb4a2f3a3fc146c71fc2670b98398c",
            "0x00000000000000000000000056fd3f2bee130e9867942d0f463a16fbe49b8d81"
          ],
          "data": "0x000000000000000000000000000000000000000000000000d02ab486cedc0000",
          "blockHash": "0x7db9cb4e6f02c582701ae627b7f8150254e4a3088486d09fc94bc97900843e52",
          "blockNumber": "0x23a6347",
          "transactionHash": "0xf2d1b51480739bf2626252ae4f6eb884b65e05489b7361a3258b2c48f9491510",
          "transactionIndex": "0x2",
          "logIndex": "0xb",
          "removed": false
        },
        {
          "address": "0x357b3a662ea70b5cb42a2950cee16974b02c9f9b",
          "topics": [
            "0x3942babd464ceb1c7d319f75245a8cd41334592b45507f072e7020e63c22a8dc",
            "0x605c021b9f7f11da9cd267131a4315cffc3d5e3c1e1469687aae11389d7e2842"
          ],
          "data": "0x0000000000000000000000000000000000000000000000000000000000000000",
          "blockHash": "0x7db9cb4e6f02c582701ae627b7f8150254e4a3088486d09fc94bc97900843e52",
          "blockNumber": "0x23a6347",
          "transactionHash": "0xf2d1b51480739bf2626252ae4f6eb884b65e05489b7361a3258b2c48f9491510",
          "transactionIndex": "0x2",
          "logIndex": "0xc",
          "removed": false
        },
        {
          "address": "0x357b3a662ea70b5cb42a2950cee16974b02c9f9b",
          "topics": [
            "0x649442545e0f313a6d8087b19bc47bd2bd9b63f79d23a773446e00d2ea01d169",
            "0x605c021b9f7f11da9cd267131a4315cffc3d5e3c1e1469687aae11389d7e2842"
          ],
          "data": "0x00000000000000000000000000000000000000000000000000000000000000000000000000000000000000000000000000000000000000000000000000000000",
          "blockHash": "0x7db9cb4e6f02c582701ae627b7f8150254e4a3088486d09fc94bc97900843e52",
          "blockNumber": "0x23a6347",
          "transactionHash": "0xf2d1b51480739bf2626252ae4f6eb884b65e05489b7361a3258b2c48f9491510",
          "transactionIndex": "0x2",
          "logIndex": "0xd",
          "removed": false
        }
      ],
      "logsBloom": "0x000800200000000000000000000008000000100000000000200000110000000000800000c000000000040000000001000000004000000000010000008400000000000000000000000000000800000010000000040000000000000880000000000000000003000000000000000000080000000000000020800000001000800204000000080800000000002000000000000040000004000000000000000000010004000000000000000001000000000000000008100000a000000000005000000000000002000000000000000040000000800000000000000001120001000020000004000001000000000200000000000000000000880000800000000000000000",
      "type": "0x0",
      "transactionHash": "0xf2d1b51480739bf2626252ae4f6eb884b65e05489b7361a3258b2c48f9491510",
      "transactionIndex": "0x2",
      "blockHash": "0x7db9cb4e6f02c582701ae627b7f8150254e4a3088486d09fc94bc97900843e52",
      "blockNumber": "0x23a6347",
      "gasUsed": "0x486a8",
      "effectiveGasPrice": "0x5d22cfc40",
      "from": "0x56fd3f2bee130e9867942d0f463a16fbe49b8d81",
      "to": "0x357b3a662ea70b5cb42a2950cee16974b02c9f9b",
      "contractAddress": null,
      "l1BaseFeeScalar": "0x0",
      "l1BlobBaseFee": "0x1",
      "l1BlobBaseFeeScalar": "0x0",
      "l1Fee": "0x0",
      "l1GasPrice": "0x11",
      "l1GasUsed": "0x640"
    },
    {
      "status": "0x1",
      "cumulativeGasUsed": "0x963ba",
      "logs": [
        {
          "address": "0x03d906157670642231aa778f557e0a80977ed010",
          "topics": [
            "0x4d29de21de555af78a62fc82dd4bc05e9ae5b0660a37f04729527e0f22780cd3"
          ],
          "data": "0x00000000000000000000000000000000000000000000000ad78ebc5ac6200000",
          "blockHash": "0x1680cc153082a9d278f954de280424ce1db8a902fb89c1cde04e5227199f4bc2",
          "blockNumber": "0x23a634c",
          "transactionHash": "0x7d1b6130de1237e4bfce88a8c43e30ac6bca1ff658a346f35ab8820ea0f1fadb",
          "transactionIndex": "0x1",
          "logIndex": "0x0",
          "removed": false
        },
        {
          "address": "0x357b3a662ea70b5cb42a2950cee16974b02c9f9b",
          "topics": [
            "0x3942babd464ceb1c7d319f75245a8cd41334592b45507f072e7020e63c22a8dc",
            "0x94153133fa0a695dc4c5e923816e4434bb6f5bf850bba6afe04af4d581d0cd83"
          ],
          "data": "0x0000000000000000000000000000000000000000000000000000000000000000",
          "blockHash": "0x1680cc153082a9d278f954de280424ce1db8a902fb89c1cde04e5227199f4bc2",
          "blockNumber": "0x23a634c",
          "transactionHash": "0x7d1b6130de1237e4bfce88a8c43e30ac6bca1ff658a346f35ab8820ea0f1fadb",
          "transactionIndex": "0x1",
          "logIndex": "0x1",
          "removed": false
        },
        {
          "address": "0x357b3a662ea70b5cb42a2950cee16974b02c9f9b",
          "topics": [
            "0x649442545e0f313a6d8087b19bc47bd2bd9b63f79d23a773446e00d2ea01d169",
            "0x94153133fa0a695dc4c5e923816e4434bb6f5bf850bba6afe04af4d581d0cd83"
          ],
          "data": "0x00000000000000000000000000000000000000000000000000000000000000000000000000000000000000000000000000000000000000000000000000000000",
          "blockHash": "0x1680cc153082a9d278f954de280424ce1db8a902fb89c1cde04e5227199f4bc2",
          "blockNumber": "0x23a634c",
          "transactionHash": "0x7d1b6130de1237e4bfce88a8c43e30ac6bca1ff658a346f35ab8820ea0f1fadb",
          "transactionIndex": "0x1",
          "logIndex": "0x2",
          "removed": false
        },
        {
          "address": "0xfd59767bdfb221f83a5e60702f3b89132fdaaac2",
          "topics": [
            "0xddf252ad1be2c89b69c2b068fc378daa952ba7f163c4a11628f55a4df523b3ef",
            "0x0000000000000000000000000000000000000000000000000000000000000000",
            "0x00000000000000000000000056fd3f2bee130e9867942d0f463a16fbe49b8d81"
          ],
          "data": "0x00000000000000000000000000000000000000000000000003d311b97ceeec1e",
          "blockHash": "0x1680cc153082a9d278f954de280424ce1db8a902fb89c1cde04e5227199f4bc2",
          "blockNumber": "0x23a634c",
          "transactionHash": "0x7d1b6130de1237e4bfce88a8c43e30ac6bca1ff658a346f35ab8820ea0f1fadb",
          "transactionIndex": "0x1",
          "logIndex": "0x3",
          "removed": false
        },
        {
          "address": "0xfd59767bdfb221f83a5e60702f3b89132fdaaac2",
          "topics": [
            "0xddf252ad1be2c89b69c2b068fc378daa952ba7f163c4a11628f55a4df523b3ef",
            "0x0000000000000000000000000000000000000000000000000000000000000000",
            "0x000000000000000000000000788d1c22caefe663a1f3342383a1a2543ccfbe9b"
          ],
          "data": "0x0000000000000000000000000000000000000000000000000b79352c76ccc45a",
          "blockHash": "0x1680cc153082a9d278f954de280424ce1db8a902fb89c1cde04e5227199f4bc2",
          "blockNumber": "0x23a634c",
          "transactionHash": "0x7d1b6130de1237e4bfce88a8c43e30ac6bca1ff658a346f35ab8820ea0f1fadb",
          "transactionIndex": "0x1",
          "logIndex": "0x4",
          "removed": false
        },
        {
          "address": "0x874069fa1eb16d44d622f2e0ca25eea172369bc1",
          "topics": [
            "0xddf252ad1be2c89b69c2b068fc378daa952ba7f163c4a11628f55a4df523b3ef",
            "0x00000000000000000000000056fd3f2bee130e9867942d0f463a16fbe49b8d81",
            "0x000000000000000000000000e3d9b4eb15bb4a2f3a3fc146c71fc2670b98398c"
          ],
          "data": "0x000000000000000000000000000000000000000000000000d02ab486cedc0000",
          "blockHash": "0x1680cc153082a9d278f954de280424ce1db8a902fb89c1cde04e5227199f4bc2",
          "blockNumber": "0x23a634c",
          "transactionHash": "0x7d1b6130de1237e4bfce88a8c43e30ac6bca1ff658a346f35ab8820ea0f1fadb",
          "transactionIndex": "0x1",
          "logIndex": "0x5",
          "removed": false
        },
        {
          "address": "0xe3d9b4eb15bb4a2f3a3fc146c71fc2670b98398c",
          "topics": [
            "0x9bbe217b4113a0fc957e51f8db99c9989f520e3c6bcca7a8e12c6316eaf995bf"
          ],
          "data": "0x00000000000000000000000000000000000000000000000aeeee5e0069d296b6",
          "blockHash": "0x1680cc153082a9d278f954de280424ce1db8a902fb89c1cde04e5227199f4bc2",
          "blockNumber": "0x23a634c",
          "transactionHash": "0x7d1b6130de1237e4bfce88a8c43e30ac6bca1ff658a346f35ab8820ea0f1fadb",
          "transactionIndex": "0x1",
          "logIndex": "0x6",
          "removed": false
        },
        {
          "address": "0xfd59767bdfb221f83a5e60702f3b89132fdaaac2",
          "topics": [
            "0xddf252ad1be2c89b69c2b068fc378daa952ba7f163c4a11628f55a4df523b3ef",
            "0x0000000000000000000000000000000000000000000000000000000000000000",
            "0x00000000000000000000000056fd3f2bee130e9867942d0f463a16fbe49b8d81"
          ],
          "data": "0x00000000000000000000000000000000000000000000006c6b935b8bbd400000",
          "blockHash": "0x1680cc153082a9d278f954de280424ce1db8a902fb89c1cde04e5227199f4bc2",
          "blockNumber": "0x23a634c",
          "transactionHash": "0x7d1b6130de1237e4bfce88a8c43e30ac6bca1ff658a346f35ab8820ea0f1fadb",
          "transactionIndex": "0x1",
          "logIndex": "0x7",
          "removed": false
        },
        {
          "address": "0x874069fa1eb16d44d622f2e0ca25eea172369bc1",
          "topics": [
            "0xddf252ad1be2c89b69c2b068fc378daa952ba7f163c4a11628f55a4df523b3ef",
            "0x00000000000000000000000056fd3f2bee130e9867942d0f463a16fbe49b8d81",
            "0x0000000000000000000000009450188ccd9ee2357dba39ac53e7f0c7dbad3979"
          ],
          "data": "0x00000000000000000000000000000000000000000000000000853a0d2313c000",
          "blockHash": "0x1680cc153082a9d278f954de280424ce1db8a902fb89c1cde04e5227199f4bc2",
          "blockNumber": "0x23a634c",
          "transactionHash": "0x7d1b6130de1237e4bfce88a8c43e30ac6bca1ff658a346f35ab8820ea0f1fadb",
          "transactionIndex": "0x1",
          "logIndex": "0x8",
          "removed": false
        },
        {
          "address": "0x3770616f42c9e7159a495c1b030140f8d17f3128",
          "topics": [
            "0xddf252ad1be2c89b69c2b068fc378daa952ba7f163c4a11628f55a4df523b3ef",
            "0x0000000000000000000000000000000000000000000000000000000000000000",
            "0x00000000000000000000000056fd3f2bee130e9867942d0f463a16fbe49b8d81",
            "0x94153133fa0a695dc4c5e923816e4434bb6f5bf850bba6afe04af4d581d0cd83"
          ],
          "data": "0x",
          "blockHash": "0x1680cc153082a9d278f954de280424ce1db8a902fb89c1cde04e5227199f4bc2",
          "blockNumber": "0x23a634c",
          "transactionHash": "0x7d1b6130de1237e4bfce88a8c43e30ac6bca1ff658a346f35ab8820ea0f1fadb",
          "transactionIndex": "0x1",
          "logIndex": "0x9",
          "removed": false
        },
        {
          "address": "0x32fc293f48f0645ad9168a0ce73f064f6695d3ce",
          "topics": [
            "0x0fba2673863b12c7b8463f3fa2f9b0cb1d534c573cdec5b5d895ee00d6ce6f5e",
            "0x94153133fa0a695dc4c5e923816e4434bb6f5bf850bba6afe04af4d581d0cd83"
          ],
          "data": "0x00000000000000000000000000000000000000000000006c7adf7cedf46fa295000000000000000000000000000000000000000000000000d02ab486cedc00000000000000000000000000000000000000000000000000007923f646fc600f1c000000000000000000000000000000000000000000000000016345785d8a000000000000000000000000000000000000000000000000000009f83da6cc7cf39300000000000000000000000000000000000000000000000538d8b77885544c3b",
          "blockHash": "0x1680cc153082a9d278f954de280424ce1db8a902fb89c1cde04e5227199f4bc2",
          "blockNumber": "0x23a634c",
          "transactionHash": "0x7d1b6130de1237e4bfce88a8c43e30ac6bca1ff658a346f35ab8820ea0f1fadb",
          "transactionIndex": "0x1",
          "logIndex": "0xa",
          "removed": false
        },
        {
          "address": "0x32fc293f48f0645ad9168a0ce73f064f6695d3ce",
          "topics": [
            "0x962110f281c1213763cd97a546b337b3cbfd25a31ea9723e9d8b7376ba45da1a",
            "0x94153133fa0a695dc4c5e923816e4434bb6f5bf850bba6afe04af4d581d0cd83"
          ],
          "data": "0x0000000000000000000000000000000000000000000000000000000000000000000000000000000000000000000000000000000000000000016345785d8a000000000000000000000000000000000000000000000000000000000000000000000000000000000000000000000000000000000000000000000f4c2162372fa29500000000000000000000000000000000000000000000006c6b935b8bbd4000000000000000000000000000000000000000000000000000000000000000000000000000000000000000000000000000000000000000000000d02ab486cedc0000",
          "blockHash": "0x1680cc153082a9d278f954de280424ce1db8a902fb89c1cde04e5227199f4bc2",
          "blockNumber": "0x23a634c",
          "transactionHash": "0x7d1b6130de1237e4bfce88a8c43e30ac6bca1ff658a346f35ab8820ea0f1fadb",
          "transactionIndex": "0x1",
          "logIndex": "0xb",
          "removed": false
        }
      ],
      "logsBloom": "0x000800204000000000000000000008000000100000000000200000110000000000800000c000000000040000000001000000004000000000010000008400000000000000000000000000000800000010000000040000000000000880000000000000000003000000000000000000080000000000000020800000001000800204000000080800000000000000000000000040040000000000000000000000000004000000000000000001000000000000000008100000a000000000005000000000000002000000000000000040000000800000000000400001120001000020000004000001000000000200000000000000000000880000800000000000000000",
      "type": "0x0",
      "transactionHash": "0x7d1b6130de1237e4bfce88a8c43e30ac6bca1ff658a346f35ab8820ea0f1fadb",
      "transactionIndex": "0x1",
      "blockHash": "0x1680cc153082a9d278f954de280424ce1db8a902fb89c1cde04e5227199f4bc2",
      "blockNumber": "0x23a634c",
      "gasUsed": "0x8b8cc",
      "effectiveGasPrice": "0x5d22cfc40",
      "from": "0x56fd3f2bee130e9867942d0f463a16fbe49b8d81",
      "to": "0x357b3a662ea70b5cb42a2950cee16974b02c9f9b",
      "contractAddress": null,
      "l1BaseFeeScalar": "0x0",
      "l1BlobBaseFee": "0x1",
      "l1BlobBaseFeeScalar": "0x0",
      "l1Fee": "0x0",
      "l1GasPrice": "0x11",
      "l1GasUsed": "0x81b"
    },
    {
      "status": "0x1",
      "cumulativeGasUsed": "0x59831",
      "logs": [],
      "logsBloom": "0x00000000000000000000000000000000000000000000000000000000000000000000000000000000000000000000000000000000000000000000000000000000000000000000000000000000000000000000000000000000000000000000000000000000000000000000000000000000000000000000000000000000000000000000000000000000000000000000000000000000000000000000000000000000000000000000000000000000000000000000000000000000000000000000000000000000000000000000000000000000000000000000000000000000000000000000000000000000000000000000000000000000000000000000000000000000",
      "type": "0x0",
      "transactionHash": "0x8379010264cbb231a48e9e307396fe5e821aef079da5945f8989554cb192c940",
      "transactionIndex": "0x2",
      "blockHash": "0x1f8a9b2bd27cf5af0fa99a030e92d666d8018bd32384e6970c87b518f1543c6e",
      "blockNumber": "0x23a634f",
      "gasUsed": "0x67e6",
      "effectiveGasPrice": "0x5d22cfc40",
      "from": "0xf50858a1c0507e57c08a2798dccaecfdbb5fed50",
      "to": "0x03d906157670642231aa778f557e0a80977ed010",
      "contractAddress": null,
      "l1BaseFeeScalar": "0x0",
      "l1BlobBaseFee": "0x1",
      "l1BlobBaseFeeScalar": "0x0",
      "l1Fee": "0x0",
      "l1GasPrice": "0x11",
      "l1GasUsed": "0x640"
    },
    {
      "status": "0x1",
      "cumulativeGasUsed": "0x123dd4",
      "logs": [
        {
          "address": "0x03d906157670642231aa778f557e0a80977ed010",
          "topics": [
            "0x4d29de21de555af78a62fc82dd4bc05e9ae5b0660a37f04729527e0f22780cd3"
          ],
          "data": "0x0000000000000000000000000000000000000000000000056bc75e2d63100000",
          "blockHash": "0x2ea00596c6156cb831fcf8f24028bae32aa8859c8abf3c0b45bcd68bb4115554",
          "blockNumber": "0x23a6353",
          "transactionHash": "0x1d6bed3853481e54958e9dd2a8ee56a3b9ce0ccf4ac0d846b3db36c2b2667ee2",
          "transactionIndex": "0x5",
          "logIndex": "0x6",
          "removed": false
        },
        {
          "address": "0x3770616f42c9e7159a495c1b030140f8d17f3128",
          "topics": [
            "0xddf252ad1be2c89b69c2b068fc378daa952ba7f163c4a11628f55a4df523b3ef",
            "0x00000000000000000000000056fd3f2bee130e9867942d0f463a16fbe49b8d81",
            "0x0000000000000000000000000000000000000000000000000000000000000000",
            "0x94153133fa0a695dc4c5e923816e4434bb6f5bf850bba6afe04af4d581d0cd83"
          ],
          "data": "0x",
          "blockHash": "0x2ea00596c6156cb831fcf8f24028bae32aa8859c8abf3c0b45bcd68bb4115554",
          "blockNumber": "0x23a6353",
          "transactionHash": "0x1d6bed3853481e54958e9dd2a8ee56a3b9ce0ccf4ac0d846b3db36c2b2667ee2",
          "transactionIndex": "0x5",
          "logIndex": "0x7",
          "removed": false
        },
        {
          "address": "0x357b3a662ea70b5cb42a2950cee16974b02c9f9b",
          "topics": [
            "0x3942babd464ceb1c7d319f75245a8cd41334592b45507f072e7020e63c22a8dc",
            "0x94153133fa0a695dc4c5e923816e4434bb6f5bf850bba6afe04af4d581d0cd83"
          ],
          "data": "0x0000000000000000000000000000000000000000000000000000000000000000",
          "blockHash": "0x2ea00596c6156cb831fcf8f24028bae32aa8859c8abf3c0b45bcd68bb4115554",
          "blockNumber": "0x23a6353",
          "transactionHash": "0x1d6bed3853481e54958e9dd2a8ee56a3b9ce0ccf4ac0d846b3db36c2b2667ee2",
          "transactionIndex": "0x5",
          "logIndex": "0x8",
          "removed": false
        },
        {
          "address": "0x357b3a662ea70b5cb42a2950cee16974b02c9f9b",
          "topics": [
            "0x649442545e0f313a6d8087b19bc47bd2bd9b63f79d23a773446e00d2ea01d169",
            "0x94153133fa0a695dc4c5e923816e4434bb6f5bf850bba6afe04af4d581d0cd83"
          ],
          "data": "0x00000000000000000000000000000000000000000000000000000000000000000000000000000000000000000000000000000000000000000000000000000000",
          "blockHash": "0x2ea00596c6156cb831fcf8f24028bae32aa8859c8abf3c0b45bcd68bb4115554",
          "blockNumber": "0x23a6353",
          "transactionHash": "0x1d6bed3853481e54958e9dd2a8ee56a3b9ce0ccf4ac0d846b3db36c2b2667ee2",
          "transactionIndex": "0x5",
          "logIndex": "0x9",
          "removed": false
        },
        {
          "address": "0x32fc293f48f0645ad9168a0ce73f064f6695d3ce",
          "topics": [
            "0x0fba2673863b12c7b8463f3fa2f9b0cb1d534c573cdec5b5d895ee00d6ce6f5e",
            "0x94153133fa0a695dc4c5e923816e4434bb6f5bf850bba6afe04af4d581d0cd83"
          ],
          "data": "0x000000000000000000000000000000000000000000000000000000000000000000000000000000000000000000000000000000000000000000000000000000000000000000000000000000000000000000000000000000000000000000000000000000000000000000000000000000000000000000000000000000000000000000000000000000000000000000000000000000000000000000000000000000000000000000000000000000000000000000000000000000000000000000000000",
          "blockHash": "0x2ea00596c6156cb831fcf8f24028bae32aa8859c8abf3c0b45bcd68bb4115554",
          "blockNumber": "0x23a6353",
          "transactionHash": "0x1d6bed3853481e54958e9dd2a8ee56a3b9ce0ccf4ac0d846b3db36c2b2667ee2",
          "transactionIndex": "0x5",
          "logIndex": "0xa",
          "removed": false
        },
        {
          "address": "0x32fc293f48f0645ad9168a0ce73f064f6695d3ce",
          "topics": [
            "0x962110f281c1213763cd97a546b337b3cbfd25a31ea9723e9d8b7376ba45da1a",
            "0x94153133fa0a695dc4c5e923816e4434bb6f5bf850bba6afe04af4d581d0cd83"
          ],
          "data": "0x0000000000000000000000000000000000000000000000000000000000000005000000000000000000000000000000000000000000000000000000000000000000000000000000000000000000000000000000000000000000000000000000000000000000000000000000000000000000000000000000000000000000000000ffffffffffffffffffffffffffffffffffffffffffffff9385205aac21f310570000000000000000000000000000000000000000000000000000000000000000ffffffffffffffffffffffffffffffffffffffffffffffff2fd54b7931240000",
          "blockHash": "0x2ea00596c6156cb831fcf8f24028bae32aa8859c8abf3c0b45bcd68bb4115554",
          "blockNumber": "0x23a6353",
          "transactionHash": "0x1d6bed3853481e54958e9dd2a8ee56a3b9ce0ccf4ac0d846b3db36c2b2667ee2",
          "transactionIndex": "0x5",
          "logIndex": "0xb",
          "removed": false
        },
        {
          "address": "0xfd59767bdfb221f83a5e60702f3b89132fdaaac2",
          "topics": [
            "0xddf252ad1be2c89b69c2b068fc378daa952ba7f163c4a11628f55a4df523b3ef",
            "0x0000000000000000000000000000000000000000000000000000000000000000",
            "0x00000000000000000000000056fd3f2bee130e9867942d0f463a16fbe49b8d81"
          ],
          "data": "0x0000000000000000000000000000000000000000000000000000173ac931f1bb",
          "blockHash": "0x2ea00596c6156cb831fcf8f24028bae32aa8859c8abf3c0b45bcd68bb4115554",
          "blockNumber": "0x23a6353",
          "transactionHash": "0x1d6bed3853481e54958e9dd2a8ee56a3b9ce0ccf4ac0d846b3db36c2b2667ee2",
          "transactionIndex": "0x5",
          "logIndex": "0xc",
          "removed": false
        },
        {
          "address": "0xfd59767bdfb221f83a5e60702f3b89132fdaaac2",
          "topics": [
            "0xddf252ad1be2c89b69c2b068fc378daa952ba7f163c4a11628f55a4df523b3ef",
            "0x0000000000000000000000000000000000000000000000000000000000000000",
            "0x000000000000000000000000788d1c22caefe663a1f3342383a1a2543ccfbe9b"
          ],
          "data": "0x000000000000000000000000000000000000000000000000000045b05b95d531",
          "blockHash": "0x2ea00596c6156cb831fcf8f24028bae32aa8859c8abf3c0b45bcd68bb4115554",
          "blockNumber": "0x23a6353",
          "transactionHash": "0x1d6bed3853481e54958e9dd2a8ee56a3b9ce0ccf4ac0d846b3db36c2b2667ee2",
          "transactionIndex": "0x5",
          "logIndex": "0xd",
          "removed": false
        },
        {
          "address": "0x7913d782b01d29a2e886c88870f575aec8044d9d",
          "topics": [
            "0x316f60239adb8a9761840b0c8fa98be5be997ab540f803e68b716491da743201"
          ],
          "data": "0x000000000000000000000000000000000000000000000080dbbec2f7f5df7316",
          "blockHash": "0x2ea00596c6156cb831fcf8f24028bae32aa8859c8abf3c0b45bcd68bb4115554",
          "blockNumber": "0x23a6353",
          "transactionHash": "0x1d6bed3853481e54958e9dd2a8ee56a3b9ce0ccf4ac0d846b3db36c2b2667ee2",
          "transactionIndex": "0x5",
          "logIndex": "0xe",
          "removed": false
        },
        {
          "address": "0xe3d9b4eb15bb4a2f3a3fc146c71fc2670b98398c",
          "topics": [
            "0x9bbe217b4113a0fc957e51f8db99c9989f520e3c6bcca7a8e12c6316eaf995bf"
          ],
          "data": "0x00000000000000000000000000000000000000000000000a1fce1d93e11e16b6",
          "blockHash": "0x2ea00596c6156cb831fcf8f24028bae32aa8859c8abf3c0b45bcd68bb4115554",
          "blockNumber": "0x23a6353",
          "transactionHash": "0x1d6bed3853481e54958e9dd2a8ee56a3b9ce0ccf4ac0d846b3db36c2b2667ee2",
          "transactionIndex": "0x5",
          "logIndex": "0xf",
          "removed": false
        },
        {
          "address": "0x874069fa1eb16d44d622f2e0ca25eea172369bc1",
          "topics": [
            "0xddf252ad1be2c89b69c2b068fc378daa952ba7f163c4a11628f55a4df523b3ef",
            "0x000000000000000000000000e3d9b4eb15bb4a2f3a3fc146c71fc2670b98398c",
            "0x0000000000000000000000007913d782b01d29a2e886c88870f575aec8044d9d"
          ],
          "data": "0x000000000000000000000000000000000000000000000000cf20406c88b48000",
          "blockHash": "0x2ea00596c6156cb831fcf8f24028bae32aa8859c8abf3c0b45bcd68bb4115554",
          "blockNumber": "0x23a6353",
          "transactionHash": "0x1d6bed3853481e54958e9dd2a8ee56a3b9ce0ccf4ac0d846b3db36c2b2667ee2",
          "transactionIndex": "0x5",
          "logIndex": "0x10",
          "removed": false
        },
        {
          "address": "0x7913d782b01d29a2e886c88870f575aec8044d9d",
          "topics": [
            "0xb81b9c2dfafac0a12c15a844bf9eeadd4056362c69dfce825ce7538d1706d8eb"
          ],
          "data": "0x000000000000000000000000000000000000000000000000f6082f3cdd6326ee",
          "blockHash": "0x2ea00596c6156cb831fcf8f24028bae32aa8859c8abf3c0b45bcd68bb4115554",
          "blockNumber": "0x23a6353",
          "transactionHash": "0x1d6bed3853481e54958e9dd2a8ee56a3b9ce0ccf4ac0d846b3db36c2b2667ee2",
          "transactionIndex": "0x5",
          "logIndex": "0x11",
          "removed": false
        },
        {
          "address": "0x32fc293f48f0645ad9168a0ce73f064f6695d3ce",
          "topics": [
            "0x7243af9a1cff94d3429b2ee00b78c1c10589259f20dc167cb67704f38f9e824e"
          ],
          "data": "0x000000000000000000000000000000000000000000000000000000000000000000000000000000000000000000000000000000000000006c7adfa553de0cefa900000000000000000000000000000000000000000000000000853a0d2313c000000000000000000000000000000000000000000000000000010a741a462780000000000000000000000000000000000000000000000000000000000000000000000000000000000000000000000000000000000000000000cf20406c88b4800000000000000000000000000000000000000000000000000000000000000000000000000000000000000000000000000000000000000000000bd918fa9691dc8b00000000000000000000000000000000000000000000000634b0a5a55ba0a2690000000000000000000000000000000000000000000000056bc75e2d63100000",
          "blockHash": "0x2ea00596c6156cb831fcf8f24028bae32aa8859c8abf3c0b45bcd68bb4115554",
          "blockNumber": "0x23a6353",
          "transactionHash": "0x1d6bed3853481e54958e9dd2a8ee56a3b9ce0ccf4ac0d846b3db36c2b2667ee2",
          "transactionIndex": "0x5",
          "logIndex": "0x12",
          "removed": false
        },
        {
          "address": "0x874069fa1eb16d44d622f2e0ca25eea172369bc1",
          "topics": [
            "0xddf252ad1be2c89b69c2b068fc378daa952ba7f163c4a11628f55a4df523b3ef",
            "0x0000000000000000000000009450188ccd9ee2357dba39ac53e7f0c7dbad3979",
            "0x000000000000000000000000f50858a1c0507e57c08a2798dccaecfdbb5fed50"
          ],
          "data": "0x00000000000000000000000000000000000000000000000000853a0d2313c000",
          "blockHash": "0x2ea00596c6156cb831fcf8f24028bae32aa8859c8abf3c0b45bcd68bb4115554",
          "blockNumber": "0x23a6353",
          "transactionHash": "0x1d6bed3853481e54958e9dd2a8ee56a3b9ce0ccf4ac0d846b3db36c2b2667ee2",
          "transactionIndex": "0x5",
          "logIndex": "0x13",
          "removed": false
        },
        {
          "address": "0xe3d9b4eb15bb4a2f3a3fc146c71fc2670b98398c",
          "topics": [
            "0x9bbe217b4113a0fc957e51f8db99c9989f520e3c6bcca7a8e12c6316eaf995bf"
          ],
          "data": "0x00000000000000000000000000000000000000000000000a1ec3a9799af696b6",
          "blockHash": "0x2ea00596c6156cb831fcf8f24028bae32aa8859c8abf3c0b45bcd68bb4115554",
          "blockNumber": "0x23a6353",
          "transactionHash": "0x1d6bed3853481e54958e9dd2a8ee56a3b9ce0ccf4ac0d846b3db36c2b2667ee2",
          "transactionIndex": "0x5",
          "logIndex": "0x14",
          "removed": false
        },
        {
          "address": "0x874069fa1eb16d44d622f2e0ca25eea172369bc1",
          "topics": [
            "0xddf252ad1be2c89b69c2b068fc378daa952ba7f163c4a11628f55a4df523b3ef",
            "0x000000000000000000000000e3d9b4eb15bb4a2f3a3fc146c71fc2670b98398c",
            "0x000000000000000000000000f50858a1c0507e57c08a2798dccaecfdbb5fed50"
          ],
          "data": "0x000000000000000000000000000000000000000000000000010a741a46278000",
          "blockHash": "0x2ea00596c6156cb831fcf8f24028bae32aa8859c8abf3c0b45bcd68bb4115554",
          "blockNumber": "0x23a6353",
          "transactionHash": "0x1d6bed3853481e54958e9dd2a8ee56a3b9ce0ccf4ac0d846b3db36c2b2667ee2",
          "transactionIndex": "0x5",
          "logIndex": "0x15",
          "removed": false
        }
      ],
      "logsBloom": "0x000800204000800000010000008008000000100000000000200000190000000000800000c000800000040000000001000000004000000000010000008400000000000000000000000000000800000010000000040000000000000880000000000004000003000000000000000000080000000000000020800000001000800204004000080810000000000000000000100040040000000002000000000004000004000000000000000001000000000000120008100000a000000000005000000000000002200000000000000044000000800000000000400001120001000020001004000001000000000200000000040000000000880000800000000000000000",
      "type": "0x0",
      "transactionHash": "0x1d6bed3853481e54958e9dd2a8ee56a3b9ce0ccf4ac0d846b3db36c2b2667ee2",
      "transactionIndex": "0x5",
      "blockHash": "0x2ea00596c6156cb831fcf8f24028bae32aa8859c8abf3c0b45bcd68bb4115554",
      "blockNumber": "0x23a6353",
      "gasUsed": "0x51951",
      "effectiveGasPrice": "0x5d22cfc40",
      "from": "0xf50858a1c0507e57c08a2798dccaecfdbb5fed50",
      "to": "0x32fc293f48f0645ad9168a0ce73f064f6695d3ce",
      "contractAddress": null,
      "l1BaseFeeScalar": "0x0",
      "l1BlobBaseFee": "0x1",
      "l1BlobBaseFeeScalar": "0x0",
      "l1Fee": "0x0",
      "l1GasPrice": "0x11",
      "l1GasUsed": "0x640"
    },
    {
      "status": "0x1",
      "cumulativeGasUsed": "0x112d4",
      "logs": [],
      "logsBloom": "0x00000000000000000000000000000000000000000000000000000000000000000000000000000000000000000000000000000000000000000000000000000000000000000000000000000000000000000000000000000000000000000000000000000000000000000000000000000000000000000000000000000000000000000000000000000000000000000000000000000000000000000000000000000000000000000000000000000000000000000000000000000000000000000000000000000000000000000000000000000000000000000000000000000000000000000000000000000000000000000000000000000000000000000000000000000000",
      "type": "0x0",
      "transactionHash": "0xe08eb9bef4e4f911048e5f555bf0885d9fa3c4ce288aaa7b60934c71b75f5eb5",
      "transactionIndex": "0x1",
      "blockHash": "0x2247282dac87fa61d015dc81240ee91ba7e0173467af3ed2d21d3d8cbdce5e90",
      "blockNumber": "0x23a6358",
      "gasUsed": "0x67e6",
      "effectiveGasPrice": "0x5d22cfc40",
      "from": "0xf50858a1c0507e57c08a2798dccaecfdbb5fed50",
      "to": "0x03d906157670642231aa778f557e0a80977ed010",
      "contractAddress": null,
      "l1BaseFeeScalar": "0x0",
      "l1BlobBaseFee": "0x1",
      "l1BlobBaseFeeScalar": "0x0",
      "l1Fee": "0x0",
      "l1GasPrice": "0x11",
      "l1GasUsed": "0x640"
    }
  ],
  "libraries": [],
  "pending": [],
  "returns": {},
  "timestamp": 1738336272,
  "chain": 44787,
  "commit": "b1963d17"
}